:020000020000FC
:1000000043C51895189518951895B4C41895189562
:100010001895189572C318951895F6C318951895E4
:100020001AC3189557C01895189598C21895189521
:040030001895189572
:10004000EE24FF24EA94F1F7FA94E1F70A95D1F748
:100050000895519A0027009353010093540100938F
:10006000550100935601009357010093580100E099
:100070000093000100E00093C5000CE00093C40071
:1000800000270093C00008E90093C10006E0009338
:10009000C20000270093C60008950027519800274A
:1000A0000093C0000093C1000093C2000895009126
:1000B000C00000640093C0005093C6000091C000CF
:1000C00006FFFCCF08950091C00007FFFCCF5091C0
:1000D000C6000895DFB65F935091C6000F9300915C
:1000E0000001003029F405E850135CC001E060C055
:1000F000013031F4509353015093010102E058C094
:100100000230A9F45093540150930201CF93DF932E
:10011000C3E0D1E0C0935501D0935601CC27C093E2
:100120005701C0935801DF91CF9103E041C00330E4
:1001300021F5CF93DF93C0915501D091560159938A
:10014000C0935501D0935601C0915701D0915801E9
:10015000C50F5527D51FC0935701D0935801C091A3
:100160005301D09154012197C0935301D09354016E
:10017000DF91CF91E9F404E01BC0043021F4513247
:1001800089F405E015C0053031F40091570150178E
:1001900049F406E00DC0063029F4009158015017CB
:1001A00009F414600027009353010093540100E008
:1001B000009300010F915F91DFBE1895C3E0D1E07D
:1001C000A0910101B0910201699179918881623019
:1001D00009F02DC07030F1F404E0099302E00993B6
:1001E00006ED099307EC099303E3099301E00993F2
:1001F00007EB09930AE8099301E0099300E00993EA
:10020000E2ECFFE0A8E005910993AA95E1F7BB278E
:10021000A4E14EC0703F41F40AE50093000105EAF5
:100220000093010178D0FFCF7F3F39F43CC0BB275A
:10023000A3E002E0009305013BC050E1751311C03B
:1002400080FFC2D080FDBED081FFC8D081FDC4D068
:1002500082FFC8D082FDC4D083FFCED083FDCAD038
:1002600022C051E1751305C0099118D2099118D225
:100270001AC052E1751316C0BB27ABE0A3D1899316
:100280009993A5D18993999300915A01099300916B
:100290005C010993BAD0099308B509930091B400A1
:1002A000099306C00895BB27A3E000E00093050171
:1002B0001B7F01D00895EE27FF27C3E0D1E055E86A
:1002C000F6DE5A2FF4DE5B2FF2DE59910027E50FA0
:1002D000F01FEDDE1197C9F751E2E9DE5E2FE7DE90
:1002E0005F2FE5DE08955F930F9355E8E0DE53E05E
:1002F000DEDE50E0DCDE52E0DADE53E1D8DE572FFE
:10030000D6DE51E2D4DE572F5B5ED1DE50E0CFDE89
:100310000F915F910895A895009160000861009386
:10032000600008E0009360000895F894A895002705
:1003300004BF0091600008610093600000E000933A
:1003400060000895820482048204825F5F5FC101BD
:10035000C106C102C102C100410141064102410280
:100360004100610161066102610261002101210613
:100370002102210221008A0A8A0A8A0E5F5F5F5FDA
:100380008A0A8A0A8A0E3F3F3F3F07B1076007B9D2
:10039000409A419A429A07B1086007B9439A0027E8
:1003A000009368010093740100937501089507B1EB
:1003B000087F07B940984198429807B1077F07B96D
:1003C0004398089540980895409A089508B100FD13
:1003D000409800FF409A089541980895419A0895E1
:1003E00042980895429A089508B102FD429802FF8A
:1003F000429A089543980895439A089538B1009514
:100400000770387F302B38B9089508B100950F7008
:100410000895003031F40093680100917501EEDF1A
:100420000895502FF2DF009375010AE06627CAE6AF
:10043000D1E0513019F4E4E4F3E01DC0523019F476
:10044000EEE4F3E018C0533019F4E8E5F3E013C02C
:10045000543019F4E2E6F3E00EC0553019F4ECE63E
:10046000F3E009C0573019F4E6E7F3E004C0583070
:1004700051F4E0E8F3E0859189930A95E1F7509310
:10048000680160936901089550916801503011F13D
:10049000609169016A30F0F4CAE6D1E00027C60F26
:1004A000D01F8881082F02950695A8DF082F0F71AD
:1004B000003029F00A95807E802B88830BC06395DD
:1004C000609369016A3031F40091750197DF50E063
:1004D000509368012091740123952A3F29F4222723
:1004E00006D0053009F495DF2093740108956AD091
:1004F0009AEAAFE089179A0760F49AE1AEE08917AB
:100500009A0748F494EEACE089179A0730F405E0B6
:10051000089502E0089503E0089504E00895002797
:1005200000935F01009360010093610100936201F9
:100530000FE300937E0005EC00937C000FEA00932C
:100540007A00002700937B0000917A0000640093FA
:100550007A000895002700937A000895DFB65F932C
:100560002F923F92209078003090790050917C003B
:10057000517041F4209261013092620155EC509328
:100580007C0007C020925F013092600156EC5093CE
:100590007C003F902F905F91DFBE18958EE896E02B
:1005A0000027399E602C712C289E402C512C389E9F
:1005B000500C611C701E299E500C611C701E852DF4
:1005C000962D08952090610130906201E7CF209030
:1005D0005F0130906001E2CF0FE0009363010AB148
:1005E00000620AB95D9803E304BD01E005BD0FE0B8
:1005F00008BD01E000936E000AB108600AB95B987B
:1006000003E30093B00001E00093B1000FE000931A
:10061000B400CAE1D6E0C0936401D093650100271D
:10062000009366010093670108950AB10F7D0AB92E
:100630005D98002704BD05BD08BD00936E000AB19A
:10064000077F0AB95B9800270093B0000093B100C0
:100650000093B4000895DFB6CF93DF93C091640197
:10066000D0916501219719F41064CAE1D6E0C093D6
:100670006401D0936501CC24C0916601D0916701DB
:10068000CC15DC0539F0219709F46ED1C0936601D1
:10069000D0936701DF91CF91DFBE189508BD089513
:1006A0000093B4000895CF93DF93C1E7D2E0C093E5
:1006B0006601D0936701DF91CF910895289A1F7E3C
:1006C0000FEF00935A0100935B0100935C010093CC
:1006D0005D010ABD00E00093800003E80093810003
:1006E00001E200936F000895289A0027009380008C
:1006F0000093810000936F0008950F93DFB60027E9
:10070000009385000093840013FD04C01860DFBED1
:100710000F911895CF93DF93C0918600D0918700F9
:1007200003E3C73FD00770F50AE2C438D007A0F54D
:1007300005E1C03CD00730F501E1CC3CD00760F5C5
:1007400007E0C034D007F0F406E0C530D00700F56C
:1007500006E0C230D007B0F404E0C13FD00700F596
:1007600001E0C533D00770F4689400E0CD3FD007B6
:10077000F0F400E0CA39D00728F4E89400E0CE375E
:10078000D007A8F4177FDF91CF91DFBE0F911895A6
:1007900000270093590133C00DE4009359012FC085
:1007A000009159010D340027009359011CC000919C
:1007B0005D01069507F900935D0100915C010795C5
:1007C00000935C0100915B01079500935B01009130
:1007D0005A01079500935A0100915901039500931E
:1007E0005901003261F43F9200915C0130905D014B
:1007F000309403153F9031F6177F10610ABDDF91E9
:10080000CF91DFBE0F911895DFB6177FDFBE189529
:1008100004E016DC0FEF00935C0100935D010ABD5C
:100820001F7E01E0F6DD02E100935E0114FD0CC0C5
:1008300016FFFCCF29DEDAD01F7B00915E010A95FE
:1008400000935E0199F70895E8941F7E0AB5003081
:1008500069F7689408950AB5003009F449C0013079
:1008600011F4B2DD4BC0023011F4ACDD47C00430EE
:1008700011F412603DC0053049F4B4DD009163010C
:100880000150009363010ADF0BDF38C0063049F4E2
:10089000A7DD009163010F5F00936301FFDE00DFBE
:1008A0002DC0083019F400E0D0D022C00C3011F473
:1008B000D8D01EC00D3011F4CED01AC00E3011F4B5
:1008C000CED016C0013111F4C8D012C0093019F4CD
:1008D00085DD1F7D13C00A3019F410627DDD0EC066
:1008E000083111F4B0D004C00A3141F400DE91DDCA
:1008F0000FEF0ABD00935C0100935D011F7E089518
:10090000F999FECF61BD50BDFA9AF99A0895F99907
:10091000FECF61BDF89A50B508950AB100640AB9D6
:1009200008950AB10F7B0AB90895503011F451E0CF
:10093000089550E00895503009F40895539505E066
:100940005013089551E00895ECDFF29B0895F39958
:1009500003C0F39A43E00895561721F0F39843E05B
:10096000DCDF0895F29808954E9902C0F09A089538
:10097000F19A089598DE18955E98D3DF00270EBB94
:1009800000937701009378010093790100937A0135
:1009900004E000931B0004E00093680000E400936F
:1009A0006D00089550917901503019F0B6DF08E7D5
:1009B00047DB5E98B6DF0895E89401E041DB4E998D
:1009C000089507E026DDF09A16FFFECFF19904C0E6
:1009D0005BDD0CD01F7BF8CF57DD08D01F7B01E01B
:1009E00050917901501308956894089530917701DA
:1009F000409178015091790160917A017FEFF09BED
:100A000004C0F098332778E00AC0F19B08C0F19841
:100A1000339570E03D3310F48EDF01C086DF442350
:100A200021F04A95442309F48FDF33953093770101
:100A3000409378015093790160937A01772312F003
:100A4000072FE7DC089542E401C047E040937801B6
:100A5000F29863DF089562E005C064E003C061E0DE
:100A600001C063E050917901503011F442E401C0BB
:100A700042E0F29AF398561301C00895409378012A
:100A800060937A014ADF08950FEF0DBF02E00EBFB9
:100A900000E80093640000E800BF03E000937F00DB
:100AA000116010FD0CD012FD89DB14FDD4DE11FDA8
:100AB0001BD016FFF6CFE8DC99DF1F7BF2CF1E7F3D
:100AC00064DC98DC89DD58DFF9DD789475DF2EF081
:100AD0009FDE1EF0F89412E0089500E09ADC02E038
:100AE0008DDCB7DA1CDD089500E093DC01E086DCE4
:100AF000D4DA30DD9ADD56DFF7DD0DE0A1DA7CDCFB
:100B000056DC00E00093690001E00DBB789405E03D
:100B100003BF8895002703BFF8940027009369005E
:0C0B20000DBB01E00CBB1D7F11600895AF
:00000001FF
