:020000020000FC
:10000000F0C4189518951895189543C41895189527
:10001000189518954AC318951895CEC31895189534
:100020000DC3189557C01895189590C21895189536
:040030001895189572
:10004000EE24FF24EA94F1F7FA94E1F70A95D1F748
:100050000895519A0027009353010093540100938F
:10006000550100935601009357010093580100E099
:100070000093000100E00093C5000CE00093C40071
:1000800000270093C00008E90093C10006E0009338
:10009000C20000270093C60008950027519800274A
:1000A0000093C0000093C1000093C2000895009126
:1000B000C00000640093C0005093C6000091C000CF
:1000C00006FFFCCF08950091C00007FFFCCF5091C0
:1000D000C6000895DFB65F935091C6000F9300915C
:1000E0000001003029F405E850135CC001E060C055
:1000F000013031F4509353015093010102E058C094
:100100000230A9F45093540150930201CF93DF932E
:10011000C3E0D1E0C0935501D0935601CC27C093E2
:100120005701C0935801DF91CF9103E041C00330E4
:1001300021F5CF93DF93C0915501D091560159938A
:10014000C0935501D0935601C0915701D0915801E9
:10015000C50F5527D51FC0935701D0935801C091A3
:100160005301D09154012197C0935301D09354016E
:10017000DF91CF91E9F404E01BC0043021F4513247
:1001800089F405E015C0053031F40091570150178E
:1001900049F406E00DC0063029F4009158015017CB
:1001A00009F414600027009353010093540100E008
:1001B000009300010F915F91DFBE1895C3E0D1E07D
:1001C000A0910101B0910201699179918881623019
:1001D00009F02DC07030F1F404E0099302E00993B6
:1001E0000CE7099307EC099303E3099301E00993F2
:1001F0000AE309930AE4099303E0099300E00993F1
:10020000E2ECFFE0A8E005910993AA95E1F7BB278E
:10021000A4E14EC0703F41F40AE50093000105EAF5
:100220000093010178D0FFCF7F3F39F43CC0BB275A
:10023000A3E002E0009305013BC050E1751311C03B
:1002400080FFC2D080FDBED081FFC8D081FDC4D068
:1002500082FFC8D082FDC4D083FFCED083FDCAD038
:1002600022C051E1751305C00991FCD10991FCD15F
:100270001AC052E1751316C0BB27ABE09BD189931E
:1002800099939DD18993999300915A010993009173
:100290005C010993BAD0099308B509930091B400A1
:1002A000099306C00895BB27A3E000E00093050171
:1002B0001B7F01D00895EE27FF27C3E0D1E055E86A
:1002C000F6DE5A2FF4DE5B2FF2DE59910027E50FA0
:1002D000F01FEDDE1197C9F751E2E9DE5E2FE7DE90
:1002E0005F2FE5DE08955F930F9355E8E0DE53E05E
:1002F000DEDE50E0DCDE52E0DADE53E1D8DE572FFE
:10030000D6DE51E2D4DE572F5B5ED1DE50E0CFDE89
:100310000F915F910895A895009160000861009386
:10032000600008E0009360000895F894A895002705
:1003300004BF0091600008610093600000E000933A
:100340006000089542024202420246000000C101DC
:10035000C106C102C102C100410141064102410280
:100360004100610161066102610261002101210613
:100370002102210221004A0A4A0A4A0A000000001A
:100380008A0A8A0A8A0A0000000007B1076007B9D2
:10039000409A419A429A07B1086007B9439A0027E8
:1003A000009365010093710100937201089507B1F4
:1003B000087F07B940984198429807B1077F07B96D
:1003C0004398089540980895409A089508B100FD13
:1003D000409800FF409A089541980895419A0895E1
:1003E00042980895429A089508B102FD429802FF8A
:1003F000429A089543980895439A089538B1009514
:100400000770387F302B38B9089508B100950F7008
:100410000895502FFADF009372010AE06627C7E6BD
:10042000D1E0513019F4E4E4F3E01DC0523019F486
:10043000EEE4F3E018C0533019F4E8E5F3E013C03C
:10044000543019F4E2E6F3E00EC0553019F4ECE64E
:10045000F3E009C0573019F4E6E7F3E004C0583080
:1004600051F4E0E8F3E0859189930A95E1F7509320
:10047000650160936601089550916501503011F156
:10048000609166016A30F0F4C7E6D1E00027C60F3C
:10049000D01F8881082F02950695B0DF082F0F71B5
:1004A000003029F00A95807E802B88830BC06395ED
:1004B000609366016A3031F4009172019FDF50E071
:1004C000509365012091710123952A3F29F4222739
:1004D00006D0053009F49DDF2093710108956AD09C
:1004E0009AEAAFE089179A0760F49AE1AEE08917BB
:1004F0009A0748F494EEACE089179A0730F405E0C7
:10050000089502E0089503E0089504E008950027A7
:1005100000935E0100935F0100936001009361010D
:100520000FE300937E0005EC00937C000FEA00933C
:100530007A00002700937B0000917A00006400930A
:100540007A000895002700937A000895DFB65F933C
:100550002F923F92209078003090790050917C004B
:10056000517041F4209260013092610155EC50933A
:100570007C0007C020925E0130925F0156EC5093E0
:100580007C003F902F905F91DFBE18958EE896E03B
:100590000027399E602C712C289E402C512C389EAF
:1005A000500C611C701E299E500C611C701E852D04
:1005B000962D08952090600130906101E7CF209042
:1005C0005E0130905F01E2CF0FE0009362010AB15B
:1005D00000620AB95D9803E304BD01E005BD0FE0C8
:1005E00008BD01E000936E000AB108600AB95B988B
:1005F00003E30093B00001E00093B1000FE000932B
:10060000B400CAE1D6E0C0936301D09364010895B9
:100610000AB10F7D0AB95D98002704BD05BD08BD6C
:1006200000936E000AB1077F0AB95B980027009318
:10063000B0000093B1000093B4000895DFB6CF93EB
:10064000DF93C0916301D0916401219719F4106484
:10065000CAE1D6E0C0936301D0936401DF91CF91EA
:10066000DFBE189508BD08950093B4000895289A38
:10067000177F002700935A0100935B0100935C01F0
:1006800000935D0100E00093800003E80093810087
:1006900001E200936F000895289A002700938000DC
:1006A0000093810000936F0008950F93DFB6002739
:1006B000009385000093840013FD04C01860DFBE22
:1006C0000F911895CF93DF93C0918600D09187004A
:1006D00003E3C73FD00770F50AE2C438D007A0F59E
:1006E00005E1C03CD00730F501E1CC3CD00760F516
:1006F00007E0C034D007F0F406E0C530D00700F5BD
:1007000006E0C230D007B0F404E0C13FD00700F5E6
:1007100001E0C533D00770F4689400E0CD3FD00706
:10072000F0F400E0CA39D00728F4E89400E0CE37AE
:10073000D007A8F4177FDF91CF91DFBE0F911895F6
:1007400000270093590133C00DE4009359012FC0D5
:10075000009159010D340027009359011CC00091EC
:100760005D01069507F900935D0100915C01079515
:1007700000935C0100915B01079500935B01009180
:100780005A01079500935A0100915901039500936E
:100790005901003261F43F9200915C0130905D019B
:1007A000309403153F9031F6177F10610EBBDF9137
:1007B000CF91DFBE0F911895DFB6177FDFBE18957A
:1007C000E89414FF08950EB3003009F46894089576
:1007D0000EB3003009F446C0013011F4F5DD42C01B
:1007E000023011F4EFDD3EC0043011F412603AC063
:1007F000053049F4F7DD0091620101500093620178
:1008000031DF32DF2FC0063049F4EADD00916201AA
:100810000F5F0093620126DF27DF24C0083031F428
:1008200000E0009362011EDF1FDF1CC00C3009F4E2
:1008300014C00D3009F411C0093019F4CFDD1F7D4B
:1008400011C00A3019F41062C7DD0CC0083109F478
:1008500004C00A3139F443DEDCDD002700935C017B
:1008600000935D011F7E0895F999FECF61BD50BDD3
:10087000FA9AF99A0895F999FECF61BDF89A50B5A0
:1008800008950AB100640AB908950AB10F7B0AB944
:1008900008952F93DFB62091730100004E9902C096
:1008A000216001C0226020937301DFBE2F91189553
:1008B000503011F451E0089512600895503011F451
:1008C00012600895539505E0501708F051E008951F
:1008D00022FF06C0561721F043E0752F705D03DD3F
:1008E0002B7F08955E98D1DF00270093730100935A
:1008F000740100937501009376010093770104E081
:1009000000931B0004E00093680000E400936D0076
:10091000089550917601503019F0B3DF08E790DB6D
:100920005E98B3DF0895E8944E990895209173017D
:100930002160209373016894089520917301309190
:10094000740140917501509176016091770120FF0B
:1009500005C033272E7F08E05CDD0AC021FF08C0F8
:1009600033952D7F3D3310F4A9DF01C0A1DFB0DF47
:10097000442339F04A95442321F487DF752F705DB5
:10098000B2DC339520937301309374014093750169
:1009900050937601609377010895503011F442E44A
:1009A00001C042E02D7F013011F442E413C0023057
:1009B00009F410C0033019F463E022600BC0043066
:1009C00019F462E0226006C0053019F461E022608B
:1009D00001C0442722FF08955613089544272D7F10
:1009E00008950FEF0DBF02E00EBF00E80093640012
:1009F00000E800BF03E000937F00116010FD09D004
:100A000012FDDCDB14FDE4DE16FD3ED011FD20D02E
:100A1000F5CF1E7FBADCEEDCD7DD1BDB63DF78941D
:100A200002E00EDB80DF07E076F021DE08E008DB85
:100A30000FEF0EBB1F7E08E203DBC2DE01E01EF0FB
:100A4000F89412E008950093C600E3DC60DD089599
:100A5000AEDC23DB77DDDCDD5CDF1EDE0DE0F0DA13
:100A600000E00093690001E00DBB789405E003BF4E
:100A70008895002703BF0027009369000DBB01E0A4
:100A80000CBB1D7F11600895F7DC57DF1F7B0895B5
:00000001FF
