:020000020000FC
:10000000A6C418951895189518952CC41895189588
:10001000189518951AC3189518959DC31895189595
:10002000DDC2189554C01895189563C21895189597
:040030001895189572
:10004000EE24FF24EA94F1F7FA94E1F70A95D1F748
:100050000895002700935301009354010093550124
:1000600000935601009357010093580100E000935C
:100070000001519A00E00093C5000CE00093C40019
:1000800000270093C00008E90093C10006E0009338
:10009000C20008950027519800270093C0000093E4
:1000A000C1000093C20008950091C0000064009355
:1000B000C0005093C6000091C00006FFFCCF089519
:1000C0000091C00007FFFCCF5091C6000895DFB635
:1000D0005F935091C6000F9300910001003029F406
:1000E00005E850135CC001E060C0013031F450936A
:1000F00053015093010102E058C00230A9F450931B
:10010000540150930201CF93DF93C3E0D1E0C09339
:100110005501D0935601CC27C0935701C093580185
:10012000DF91CF9103E041C0033021F5CF93DF93FE
:10013000C0915501D09156015993C0935501D09368
:100140005601C0915701D0915801C50F5527D51FB1
:10015000C0935701D0935801C0915301D0915401DD
:100160002197C0935301D0935401DF91CF91E9F4CB
:1001700004E01BC0043021F4513289F405E015C0BD
:10018000053031F400915701501749F406E00DC0D5
:10019000063029F400915801501709F444600027F3
:1001A000009353010093540100E0009300010F916C
:1001B0005F91DFBE1895C3E0D1E0A0910101B0913D
:1001C0000201699179918881623009F02DC0703007
:1001D000F1F401E0099302E009930DE0099307ECC3
:1001E000099303E3099301E009930FED099300EFED
:1001F000099302E0099300E00993E2ECFFE0A8E034
:1002000005910993AA95E1F7BB27A4E154C0703F7B
:1002100041F40AE50093000105EA0093010166D06C
:10022000FFCF7F3F39F442C0BB27A3E002E0009339
:10023000050141C050E1751311C080FF8DD080FDD4
:1002400089D081FF93D081FD8FD082FF93D082FD32
:100250008FD083FF99D083FD95D028C051E17513CD
:1002600005C00991CFD10991CFD120C052E17513BA
:100270001CC0BB27ABE000916001099300916101B4
:10028000099300915E01099300915F010993009128
:100290005A01099300915C0109937FD0099308B535
:1002A00009930091B400099306C00895BB27A3E009
:1002B00000E0009305014B7F01D00895EE27FF2752
:1002C000C3E0D1E055E8F0DE5A2FEEDE5B2FECDE26
:1002D00059910027E50FF01FE7DE1197C9F751E2AA
:1002E000E3DE5E2FE1DE5F2FDFDE0895A89500914B
:1002F000600008610093600008E0009360000895CA
:10030000F894A895002704BF00916000086100934D
:10031000600000E000936000089507B1076007B92E
:10032000409A419A429A07B1086007B9439A002758
:10033000009365010093710100937201089507B164
:10034000087F07B940984198429807B1077F07B9DD
:100350004398089540980895409A089508B100FD83
:10036000409800FF409A089541980895419A089551
:1003700042980895429A089508B102FD429802FFFA
:10038000429A089543980895439A089538B1009584
:100390000770387F302B38B9089508B100950F7079
:1003A0000895502FFADF009372010AE06627C7E62E
:1003B000D1E0513019F4E8E0F4E01DC0523019F4F6
:1003C000E2E1F4E018C0533019F4ECE1F4E013C0BA
:1003D000543019F4E6E2F4E00EC0553019F4E0E3CD
:1003E000F4E009C0573019F4EAE3F4E004C05830EF
:1003F00051F4E4E4F4E0859189930A95E1F7509390
:10040000650160936601089542024202420246007D
:100410000000C101C106C102C102C1004101410683
:100420004102410241006101610661026102610015
:10043000210121062102210221004A0A4A0A4A0A10
:10044000000000008A0A8A0A8A0A0000000050910F
:100450006501503011F1609166016A30F0F4C7E631
:10046000D1E00027C60FD01F8881082F029506957E
:100470008DDF082F0F71003029F00A95807E802BC8
:1004800088830BC06395609366016A3031F40091F4
:1004900072017CDF50E0509365012091710123953A
:1004A0002A3F29F4222745D0053009F47ADF20932A
:1004B00071010895002700935E0100935F0100938E
:1004C0006001009361010FE300937E0005EC00934F
:1004D0007C000FEA00937A00002700937B000091D4
:1004E0007A00006400937A000895002700937A0050
:1004F0000895DFB65F932F923F922090780030905E
:10050000790050917C00517041F42092600130924A
:10051000610155EC50937C0007C020925E0130923F
:100520005F0156EC50937C003F902F905F91DFBEAF
:1005300018952090600130906101C4E6D2E02C163D
:100540003D0660F4C7E2D2E02C163D0648F4C7EF42
:10055000D1E02C163D0630F405E0089502E0089540
:1005600003E0089504E008950FE0009362010AB1EA
:1005700000620AB95D9803E304BD01E005BD0FE028
:1005800008BD01E000936E000AB108600AB95B98EB
:1005900003E30093B00001E00093B1000FE000938B
:1005A000B400CAE1D6E0C0936301D093640108951A
:1005B0000AB10F7D0AB95D98002704BD05BD08BDCD
:1005C00000936E000AB1077F0AB95B980027009379
:1005D000B0000093B1000093B4000895DFB6CF934C
:1005E000DF93C0916301D0916401219719F44064B5
:1005F000CAE1D6E0C0936301D0936401DF91CF914B
:10060000DFBE189508BD08950093B4000895289A98
:10061000477F002700935A0100935B0100935C0120
:1006200000935D0100E00093800003E800938100E7
:1006300001E200936F000895289A0027009380003C
:100640000093810000936F0008950F93DFB6002799
:10065000009385000093840043FD04C04860DFBE22
:100660000F911895CF93DF93C0918600D0918700AA
:1006700003E3C73FD00770F50AE2C438D007A0F5FE
:1006800005E1C03CD00730F501E1CC3CD00760F576
:1006900007E0C034D007F0F406E0C530D00700F51D
:1006A00006E0C230D007B0F404E0C13FD00700F547
:1006B00001E0C533D00770F4689400E0CD3FD00767
:1006C000F0F400E0CA39D00728F4E89400E0CE370F
:1006D000D007A8F4477FDF91CF91DFBE0F91189527
:1006E00000270093590132C00DE4009359012EC038
:1006F000009159010D340027009359011CC000914D
:100700005D01069507F900935D0100915C01079575
:1007100000935C0100915B01079500935B010091E0
:100720005A01079500935A010091590103950093CE
:100730005901003259F43F9200915C0130905D0103
:10074000309403153F9031F6477F4061DF91CF91A0
:10075000DFBE0F911895DFB6477FDFBE1895E8948E
:1007600044FF089500915C01003009F468940895F5
:1007700000915C01003009F444C0013011F4ECDD5B
:1007800040C0023011F4E6DD3CC0043011F4426098
:1007900038C0053041F400916201015000936201BC
:1007A00031DF32DF2EC0063041F4009162010F5F6D
:1007B0000093620127DF28DF24C0083031F400E015
:1007C000009362011FDF20DF1CC00C3009F414C04D
:1007D0000D3009F411C0093019F4C8DD4F7D11C086
:1007E0000A3019F44062C0DD0CC0083109F404C0BD
:1007F0000A3139F49EDED5DD002700935C010093B9
:100800005D014F7E0895F999FECF61BD50BDFA9A02
:10081000F99A0895F999FECF61BDF89A50B50895F7
:100820001AB110641AB908951AB11F7B1AB9089544
:100830005E98FADF6624772488249924AA2414E099
:1008400010931B0014E01093680010E410936D00E7
:10085000089510E0911619F0E3DF08E7F1DB5E98E8
:10086000E3DF0895DFB60000000068944E9902C0EF
:1008700060F801C061F8DFBE18954E99089578DDE3
:10088000189510E0911611F411E401C012E0812EC8
:10089000E89462F8013019F411E4812E19C0023095
:1008A00009F416C0033029F413E0A12E689462F80D
:1008B0000FC0043029F412E0A12E689462F808C039
:1008C000053029F411E0A12E689462F801C0882453
:1008D00062FE08959A1008958824E89462F80895B5
:1008E00010E0911609F411E0912E089510E0911294
:1008F00001C00895939415E0911610F011E0912E27
:10090000089562FE07C09A1429F013E0812EE8943E
:1009100062F80895E89462F8089560FE04C07724B0
:10092000E89460F80CC061FE0AC07394E89461F822
:100930001DE3711610F4DADF01C0D8DFE2DF882092
:1009400021F08A94882009F46FDF739408950FEFE3
:100950000DBF02E00EBF00E80093640000E800BF96
:1009600003E000937F00416040FD09D042FD23DC9D
:1009700044FDFEDE46FD3AD041FD1BD0F5CFF89494
:10098000CCDC00DD66DB96DD2227EEDD01E009DD53
:100990004FDF3DDE72DF4E7F789408E051DB0FEFD2
:1009A00000935C014F7E03E24BDBD9DE0EF0426028
:1009B0000895F894C4DC6EDB98DDFADD4ADF3CDE96
:1009C0000DE03EDB00E00093690001E00DBB789490
:1009D00005E003BF8895002703BF00270093690047
:1009E0000DBB01E00CBB4D7F4160089530DD95DF0C
:0409F0004F7B08959C
:00000001FF
